{
  "_format": "hh-sol-artifact-1",
  "contractName": "LendingBorrowing",
  "sourceName": "contracts/LendingBorrowing.sol",
  "abi": [
    {
      "inputs": [
        {
          "internalType": "contract FakeUSDC",
          "name": "_usdcContract",
          "type": "address"
        }
      ],
      "stateMutability": "nonpayable",
      "type": "constructor"
    },
    {
      "anonymous": false,
      "inputs": [
        {
          "indexed": true,
          "internalType": "address",
          "name": "borrower",
          "type": "address"
        },
        {
          "indexed": false,
          "internalType": "uint256",
          "name": "usdcAmount",
          "type": "uint256"
        }
      ],
      "name": "Borrow",
      "type": "event"
    },
    {
      "anonymous": false,
      "inputs": [
        {
          "indexed": true,
          "internalType": "address",
          "name": "depositor",
          "type": "address"
        },
        {
          "indexed": false,
          "internalType": "uint256",
          "name": "nftTokenId",
          "type": "uint256"
        }
      ],
      "name": "Deposit",
      "type": "event"
    },
    {
      "inputs": [
        {
          "internalType": "address",
          "name": "",
          "type": "address"
        },
        {
          "internalType": "uint256",
          "name": "",
          "type": "uint256"
        }
      ],
      "name": "depositList",
      "outputs": [
        {
          "internalType": "uint256",
          "name": "",
          "type": "uint256"
        }
      ],
      "stateMutability": "view",
      "type": "function"
    },
    {
      "inputs": [
        {
          "internalType": "uint256",
          "name": "_nftTokenId",
          "type": "uint256"
        }
      ],
      "name": "lendAndBorrow",
      "outputs": [],
      "stateMutability": "nonpayable",
      "type": "function"
    }
  ],
  "bytecode": "0x60a060405234801561001057600080fd5b50604051610642380380610642833981810160405281019061003291906100e1565b8073ffffffffffffffffffffffffffffffffffffffff1660808173ffffffffffffffffffffffffffffffffffffffff16815250505061010e565b600080fd5b600073ffffffffffffffffffffffffffffffffffffffff82169050919050565b600061009c82610071565b9050919050565b60006100ae82610091565b9050919050565b6100be816100a3565b81146100c957600080fd5b50565b6000815190506100db816100b5565b92915050565b6000602082840312156100f7576100f661006c565b5b6000610105848285016100cc565b91505092915050565b608051610519610129600039600061017d01526105196000f3fe608060405234801561001057600080fd5b50600436106100365760003560e01c80635af246671461003b5780636045926c1461006b575b600080fd5b61005560048036038101906100509190610307565b610087565b6040516100629190610356565b60405180910390f35b61008560048036038101906100809190610371565b6100ac565b005b6000602052816000526040600020602052806000526040600020600091509150505481565b6100b5816100c3565b6100c033600161017b565b50565b60016000803373ffffffffffffffffffffffffffffffffffffffff1673ffffffffffffffffffffffffffffffffffffffff1681526020019081526020016000206000838152602001908152602001600020600082825461012391906103cd565b925050819055503373ffffffffffffffffffffffffffffffffffffffff167fe1fffcc4923d04b559f4d29a8bfc6cda04eb5b0d3c460751c2402c5c5cc9109c826040516101709190610356565b60405180910390a250565b7f000000000000000000000000000000000000000000000000000000000000000073ffffffffffffffffffffffffffffffffffffffff1663a9059cbb836103e86040518363ffffffff1660e01b81526004016101d8929190610455565b6020604051808303816000875af11580156101f7573d6000803e3d6000fd5b505050506040513d601f19601f8201168201806040525081019061021b91906104b6565b503373ffffffffffffffffffffffffffffffffffffffff167fcbc04eca7e9da35cb1393a6135a199ca52e450d5e9251cbd99f7847d33a36750826040516102629190610356565b60405180910390a25050565b600080fd5b600073ffffffffffffffffffffffffffffffffffffffff82169050919050565b600061029e82610273565b9050919050565b6102ae81610293565b81146102b957600080fd5b50565b6000813590506102cb816102a5565b92915050565b6000819050919050565b6102e4816102d1565b81146102ef57600080fd5b50565b600081359050610301816102db565b92915050565b6000806040838503121561031e5761031d61026e565b5b600061032c858286016102bc565b925050602061033d858286016102f2565b9150509250929050565b610350816102d1565b82525050565b600060208201905061036b6000830184610347565b92915050565b6000602082840312156103875761038661026e565b5b6000610395848285016102f2565b91505092915050565b7f4e487b7100000000000000000000000000000000000000000000000000000000600052601160045260246000fd5b60006103d8826102d1565b91506103e3836102d1565b92508282019050808211156103fb576103fa61039e565b5b92915050565b61040a81610293565b82525050565b6000819050919050565b6000819050919050565b600061043f61043a61043584610410565b61041a565b6102d1565b9050919050565b61044f81610424565b82525050565b600060408201905061046a6000830185610401565b6104776020830184610446565b9392505050565b60008115159050919050565b6104938161047e565b811461049e57600080fd5b50565b6000815190506104b08161048a565b92915050565b6000602082840312156104cc576104cb61026e565b5b60006104da848285016104a1565b9150509291505056fea2646970667358221220c33cb79770c7b7ce2490ca0a81f25c8721ddc65f1315d83d4ce67d038390cc2564736f6c63430008140033",
  "linkReferences": {},
  "deployedLinkReferences": {}
}